{
  "_format": "hh-sol-artifact-1",
  "contractName": "MyContract",
  "sourceName": "contracts/mycontract.sol",
  "abi": [
    {
      "inputs": [
        {
          "internalType": "string",
          "name": "_name",
          "type": "string"
        }
      ],
      "stateMutability": "nonpayable",
      "type": "constructor"
    },
    {
      "inputs": [
        {
          "internalType": "bytes32",
          "name": "c__0xc7630138",
          "type": "bytes32"
        }
      ],
      "name": "c_0xc7630138",
      "outputs": [],
      "stateMutability": "pure",
      "type": "function"
    },
    {
      "inputs": [
        {
          "internalType": "string",
          "name": "_name",
          "type": "string"
        }
      ],
      "name": "changeName",
      "outputs": [],
      "stateMutability": "nonpayable",
      "type": "function"
    },
    {
      "inputs": [],
      "name": "getName",
      "outputs": [
        {
          "internalType": "string",
          "name": "",
          "type": "string"
        }
      ],
      "stateMutability": "view",
      "type": "function"
    }
  ],
  "bytecode": "0x608060405234801561001057600080fd5b5060405161069c38038061069c8339818101604052602081101561003357600080fd5b810190808051604051939291908464010000000082111561005357600080fd5b8382019150602082018581111561006957600080fd5b825186600182028301116401000000008211171561008657600080fd5b8083526020830192505050908051906020019080838360005b838110156100ba57808201518184015260208101905061009f565b50505050905090810190601f1680156100e75780820380516001836020036101000a031916815260200191505b506040525050506101207fa563c58c13dd750f2c92329c4c4c8b3b4422a5d633376f7bcd2f2829c79aa02a60001b6101a160201b60201c565b6101527f0147bd18090965abcb484073e0b3dbc2a45e0b4877a3987f0b54c9c668c3408960001b6101a160201b60201c565b6101847f9d51a61921913c43c836c4e100b3f369ba3a8bbba6b590d93326dde46987fa5c60001b6101a160201b60201c565b806000908051906020019061019a9291906101a4565b5050610241565b50565b828054600181600116156101000203166002900490600052602060002090601f016020900481019282601f106101e557805160ff1916838001178555610213565b82800160010185558215610213579182015b828111156102125782518255916020019190600101906101f7565b5b5090506102209190610224565b5090565b5b8082111561023d576000816000905550600101610225565b5090565b61044c806102506000396000f3fe608060405234801561001057600080fd5b50600436106100415760003560e01c806317d7de7c146100465780635353a2d8146100c95780636f34f58714610184575b600080fd5b61004e6101b2565b6040518080602001828103825283818151815260200191508051906020019080838360005b8381101561008e578082015181840152602081019050610073565b50505050905090810190601f1680156100bb5780820380516001836020036101000a031916815260200191505b509250505060405180910390f35b610182600480360360208110156100df57600080fd5b81019080803590602001906401000000008111156100fc57600080fd5b82018360208201111561010e57600080fd5b8035906020019184600183028401116401000000008311171561013057600080fd5b91908080601f016020809104026020016040519081016040528093929190818152602001838380828437600081840152601f19601f8201169050808301925050505050505091929192905050506102d8565b005b6101b06004803603602081101561019a57600080fd5b8101908080359060200190929190505050610376565b005b60606101e07fb2eacd218eaba892c8dfb242e7f182c39f7147d14d3f2df9754b37d3d542701b60001b610376565b61020c7ff35f18ee6255998fad3cc5cd6ff49d945265f13007aaca2380e30d12d1dd8e4c60001b610376565b6102387fccae2680d09c84e47e06a2b0e6760f13a66c602a819657c08eba26dc7337d1c160001b610376565b60008054600181600116156101000203166002900480601f0160208091040260200160405190810160405280929190818152602001828054600181600116156101000203166002900480156102ce5780601f106102a3576101008083540402835291602001916102ce565b820191906000526020600020905b8154815290600101906020018083116102b157829003601f168201915b5050505050905090565b6103047f6b08d0d7e203129736b3c3d40b3b82442572f4c88b9af53839ebcd55744838e060001b610376565b6103307fa91ccea5407932bc81e0251a6857996278e44f2d1ad45f3f6b451d3e299e785860001b610376565b61035c7f74ec6adf5ef633eb458b063667e064143a38f66937dddb86d621bfef181aab4f60001b610376565b8060009080519060200190610372929190610379565b5050565b50565b828054600181600116156101000203166002900490600052602060002090601f016020900481019282601f106103ba57805160ff19168380011785556103e8565b828001600101855582156103e8579182015b828111156103e75782518255916020019190600101906103cc565b5b5090506103f591906103f9565b5090565b5b808211156104125760008160009055506001016103fa565b509056fea2646970667358221220163b21a957ba56e2eaad3c358ac888758c4aa5bcaba4907dce5fa7fc15b332c764736f6c63430007030033",
  "linkReferences": {},
  "deployedLinkReferences": {}
}